:020000040000FA
:10000000830100308A002C28F50003088301BD001D
:100010000A08BE008A01040883120313B0000C1CF6
:10002000232838308E00FC308F00B308031DB30343
:10003000BC08031DBC036430AF0A2F02031C222836
:10004000AF01AE0A0C10300884003E088A003D085B
:100050008300F50E750E0900283084003D304520E0
:10006000A0308400E63045201030840067308317CC
:10007000452090308400A9308317452083010A125F
:100080008A114D2E04068001840A0406031D4228AD
:100090000034820700340134003401340034013468
:1000A00000340134FF3FFF3FFF3FFF3FFF3FFF3F73
:1000B000FF3FFF3FFF3FFF3FFF3FFF3FFF3FFF3F50
:1000C000FF3FFF3FFF3FFF3FFF3FFF3FFF3FFF3F40
:1000D000FF3FFF3FFF3FFF3FFF3FFF3FFF3FFF3F30
:1000E000FF3FFF3FFF3FFF3FFF3FFF3FFF3FFF3F20
:10052000FF3FFF3FFF3FFF3FFF3F8301B91D080033
:1005300000001030B90008008301391C0800E530C4
:100540008316A50002308312B90008008301AB08AE
:10055000031DB32AB90803193B1CB32A8030B90024
:1005600040308316A30083120800831783120313FD
:100570002008A30084070008A20084030008840A5E
:10058000800084038403A30BBE2A840A2108800010
:1005900008008301A101A201D02AA20A9C30A00771
:1005A00064302002031CD82ACD2AA10AF630A00705
:1005B0000A302002031C0800D52A83178312031374
:1005C000A001A101A201A3010008A400840AA603BE
:1005D0000008A500840AF2002408F100F301F401E8
:1005E000A00772080318720FA10773080318730F8E
:1005F000A20774080318740AA307A60BE42A0800CC
:10060000831603134608A43A0319082BE8300D2B70
:100610004808230603190F2BE930A500212B4808B1
:10062000403A031D212B4A084B3A031D1B2BE13096
:10063000A50083123B1483164B08033A8312031957
:100640003B150000831208008313831203133A182A
:100650008317210884000008A300220884002308CF
:100660008000A10AA20AA00B292B3A100800A4308E
:1006700083120317970003133A1483160317100805
:10068000033E831296000313A0009030A10018309F
:10069000A20024230317960A03130800F7308312DD
:1006A00003138500233083168500D730831286001C
:1006B000013083168600C43083128700843083168D
:1006C00087008312080029308312031399008316D0
:1006D000981C682B0D30831299008316981C6E2B82
:1006E0000A30831299008316981C742B0C100B137C
:1006F0008B17831210104E238B0108008301B91E43
:10070000080003179608031DB02B83160313C508B2
:100710000319AD2B83171730840052308000840AF0
:1007200078308000840A3C308000840A80000430E5
:100730008312031796008B13831603134508831245
:10074000A1001B30A200C630A5000A128A11D024D5
:100750000A128A118316C5018B1740308312B90023
:10076000031308008301A201A301A401BE2BA40A64
:10077000F030A0070318A10AD830A10727302102C2
:10078000103003192002031CCD2BB72BA30A1830FD
:10079000A0070318A10AFC30A10703302102E830AA
:1007A00003192002031CDA2BC62BA20A9C30A007D7
:1007B000031CA10300302102643003192002031C32
:1007C000E52BD52BA10AF630A0070A302002031C26
:1007D0000800E22B8301B9018316A101E530A500D1
:1007E000831208008301391F262C03179608031D66
:1007F000262C83171730840045308000840A563039
:100800008000840A54308000840A2C308000043038
:10081000960005300313A1001B30A200A130A500F3
:100820000A128A11D0240A128A11840A0D3080001B
:10083000840A0A308000023003179607EA23083042
:10084000AB008316A208831203193B16830108002C
:1008500083012A083206031908003208AA00413031
:100860009F001F149F146430A000A00B352C9F180C
:10087000372C0317110892001008910003131E086B
:10088000031790009400930002300313A00011306E
:1008900084000317130800020318502C000893006B
:1008A000000814020318562C00089400840A03134D
:1008B000A00B492C03171008F100F2011108F107F1
:1008C0000318F20A1308F102031CF2031208F107DD
:1008D0000318F20A140871020313A0007208031C23
:1008E0007203A1002008A90008008301871064306A
:1008F000A800A808031D071D0800792C8301B91B57
:10090000871C0800071D080075243230B30008005A
:100910008301A00B892C0800830106160A30BC0055
:100920000710A001882487140530A000882406152C
:10093000A001882487100530A00088248614A00117
:10094000882C830187146430A800A808031D0719A8
:100950000800A52C83010710A1240000071405300E
:10096000A0008824752CAA2C0F3083120313A00535
:100970000A302002031CBF2C3730A007080030309B
:10098000A00708008301A00E0F30A0050A30200246
:10099000031CCD2C3730A00708003030A00708001A
:1009A00083012508840083133A1883170008A000E8
:1009B000C2242008A30083133A1883170008A0005C
:1009C000B4242008A4008317220884002308800090
:1009D000840A24088000840A2C308000A50A033091
:1009E000A207031796074F3016020318FA2C0313B9
:1009F000A10BD02C0D308000840A0A308000031730
:100A0000960A03133A1008008301391E08000317E1
:100A10009608031D612DA12406160A30BC00831719
:100A20001730840054308000840A78308000840AB3
:100A30003E308000840A800004300317960083163D
:100A40009008031D362D840A4E308000840A4930F8
:100A50008000840A4C308000840A0D308000840AB3
:100A60000A3080000530831296075D2DA430831272
:100A70000313A000C2248317840A20088000A43036
:100A8000A000B4248317840A20088000840A2C3034
:100A9000800003300317960703133A1483160317D5
:100AA0001008033E83120313A1001E30A2009030F1
:100AB000A500D0248316031790012030831203135E
:100AC000B90003130800652D0000831203132F08DB
:100AD00035060319642D2F08B50034082E060319B6
:100AE00008002E08B400B708031DB7030A30AD0A8A
:100AF0002D02031C0800AD01B608031DB6033C30EF
:100B0000B20A3202031C0800B2013C30B10A3102C1
:100B10000318B10108008301B608031D9B2D981C22
:100B2000B82D831698128312181283168C120A306D
:100B30008312B600080006303602031CA12D000007
:100B400008008316031787150430031398008030BC
:100B5000831298006630831699009A0198128312C6
:100B60001812B601831698168312181683168C165F
:100B7000831208008301BC08031DD72D03179608B4
:100B80000319D72D83171730840015088407000830
:100B9000031399008316981CCB2D8313831203171C
:100BA0001608950A1502031CD72D9601950103130B
:100BB00008008301200803178D0083168C130C1482
:100BC000830108008301A101F12D2108A000D9258E
:100BD0002108A63E8400831303170C08800003132A
:100BE000A10A06302102031CE52D00000800F130A7
:100BF000831203138500233083168500D3308312BC
:100C00008600013083168600FE30831287009C30F8
:100C100083168700831208006130831603138F0048
:100C20000F308100F72538308E00FC308F00043003
:100C3000900010140130831603178800890140309A
:100C4000831203139F0083169F01831208008317EA
:100C50001730840052308000840A65308000840A96
:100C600076308000840A31308000840A3030800081
:100C7000840A8000840A31308000840A6130800058
:100C8000840A0D308000840A0A3080008312031722
:100C9000960003130616BC0008000C260A128A11DF
:100CA00083160317871504300313980080308312CE
:100CB00098006630831699009A01981283121812D0
:100CC000831698168312181683168C162726E2258B
:100CD00083160C140B170B128B176400BA258B2587
:100CE000000063256D2E8313831203133A188317B4
:100CF000210884000008023EA000A430A1000008E2
:100D0000A106840AA00B7F2E210880003A1008005B
:100D100046308316031791000313A100093003170F
:100D2000900092010A128A114A20930000308A0032
:100D300001304920940000308A000230492095009B
:100D400000308A0003304920960000308A000430C9
:100D50004920970000308A00053049209800003073
:100D60008A0006304920990000308A000730492067
:100D70009A00831203133A149030A1000A128A11C8
:100D8000732602308316A0004030A30083120800AF
:100D900083160313A208831203190800B908031D60
:100DA00008008316A0088312031D08000317960885
:100DB000031D3B2F83160313A1088312031D080094
:100DC000AB011A2F88260A128A114230FA2E3E27CA
:100DD0000A128A115130FA2E58270A128A1143300A
:100DE000FA2E76270A128A114530FA2E90270A1217
:100DF0008A114B308316A200382FA9270A128A11B4
:100E00008316A2018312BB14392FC0270A128A113C
:100E1000122FD7270A128A118316A201382FEC2726
:100E20000A128A118316A2018312BB103B10392FBC
:100E3000A2013C2F83162208423A0319E72E013AF9
:100E40000319F12E063A0319F62E033A0319E22E7E
:100E50000D3A0319FD2E073A0319052F023A03191B
:100E6000092F1F3A0319EC2E943A03190F2F182F4C
:100E70008312B901B90A03138312080042308316A2
:100E8000031791000313A100033003179000920190
:100E9000103093009401831203133A149030A10090
:100EA000732602308316A0004030A300831208008E
:100EB00051308316031791000313A1000530031767
:100EC000900092019301930A94010B309500053034
:100ED0009600831203133A149030A1007326023057
:100EE0008316A0004030A30083120800433083160D
:100EF000031791000313A100033003179000920120
:100F0000930120309400831203133A149030A1000F
:100F1000732602308316A0004030A300831208001D
:100F200045308316031791000313A1000230031705
:100F30009000920139309300831203133A149030D9
:100F4000A100732602308316A0004030A300831254
:100F500008004B308316031791000313A1000317F9
:100F60009001900A9201831203133A149030A10069
:100F7000732602308316A0004030A30083120800BD
:100F80004C308316031791000313A100031790013F
:100F9000900A9201831203133A149030A100732631
:100FA00002308316A0004030A300831208004E30A8
:100FB0008316031791000313A10009300317900053
:100FC0009201831203133A143A149030A10073264D
:100FD0008316A30183120800C530831603179100FE
:100FE0000313A10003179001900A920183120313C7
:100FF0003A149030A10073268316A30183120800CF
:10100000FF3FFF3FFF3FFF3FFF3FFF3FFF3FFF3FF0
:10101000FF3FFF3FFF3FFF3FFF3FFF3FFF3FFF3FE0
:10102000FF3FFF3FFF3FFF3FFF3FFF3FFF3FFF3FD0
:10103000FF3FFF3FFF3FFF3FFF3FFF3FFF3FFF3FC0
:10420000080006000000300002000000000000006E
:104210000000000000000000000000000000FF009F
:10422000FF00FF00FF00FF00FF00FF00FF00FF0096
:10423000FF00FF00FF00FF00FF00FF00FF00FF0086
:10424000FF00FF00FF00FF00FF00FF00FF00FF0076
:10425000FF00FF00FF00FF00FF00FF00FF00FF0066
:10426000FF00FF00FF00FF00FF00FF00FF00FF0056
:10427000FF00FF00FF00FF00FF00FF00FF00FF0046
:10428000FF00FF00FF00FF00FF00FF00FF00FF0036
:10429000FF00FF00FF00FF00FF00FF00FF00FF0026
:1042A000FF00FF00FF00FF00FF00FF00FF00FF0016
:1042B000FF00FF00FF00FF00FF00FF00FF00FF0006
:1042C000FF00FF00FF00FF00FF00FF00FF00FF00F6
:1042D000FF00FF00FF00FF00FF00FF00FF00FF00E6
:1042E000FF00FF00FF00FF00FF00FF00FF00FF00D6
:1042F000FF00FF00FF00FF00FF00FF00FF00FF00C6
:10430000FF00FF00FF00FF00FF00FF00FF00FF00B5
:10431000FF00FF00FF00FF00FF00FF00FF00FF00A5
:10432000FF00FF00FF00FF00FF00FF00FF00FF0095
:10433000FF00FF00FF00FF00FF00FF00FF00FF0085
:10434000FF00FF00FF00FF00FF00FF00FF00FF0075
:10435000FF00FF00FF00FF00FF00FF00FF00FF0065
:10436000FF00FF00FF00FF00FF00FF00FF00FF0055
:10437000FF00FF00FF00FF00FF00FF00FF00FF0045
:10438000FF00FF00FF00FF00FF00FF00FF00FF0035
:10439000FF00FF00FF00FF00FF00FF00FF00FF0025
:1043A000FF00FF00FF00FF00FF00FF00FF00FF0015
:1043B000FF00FF00FF00FF00FF00FF00FF00FF0005
:1043C000FF00FF00FF00FF00FF00FF00FF00FF00F5
:1043D000FF00FF00FF00FF00FF00FF00FF00FF00E5
:1043E000FF00FF00FF00FF00FF00FF00FF00FF00D5
:1043F000FF00FF00FF00FF00FF00FF00FF00FF00C5
:04400E00A420FF3CAF
:0840000002000B000E00090094
:02401200FF3F6E
:00000001FF
